{
  "_format": "hh-sol-artifact-1",
  "contractName": "TodoList",
  "sourceName": "contracts/to_do_list.sol",
  "abi": [
    {
      "inputs": [
        {
          "internalType": "string",
          "name": "_content",
          "type": "string"
        }
      ],
      "name": "addTask",
      "outputs": [],
      "stateMutability": "nonpayable",
      "type": "function"
    },
    {
      "inputs": [],
      "name": "taskCount",
      "outputs": [
        {
          "internalType": "uint256",
          "name": "",
          "type": "uint256"
        }
      ],
      "stateMutability": "view",
      "type": "function"
    },
    {
      "inputs": [
        {
          "internalType": "uint256",
          "name": "",
          "type": "uint256"
        }
      ],
      "name": "tasks",
      "outputs": [
        {
          "internalType": "uint256",
          "name": "id",
          "type": "uint256"
        },
        {
          "internalType": "string",
          "name": "content",
          "type": "string"
        },
        {
          "internalType": "bool",
          "name": "completed",
          "type": "bool"
        }
      ],
      "stateMutability": "view",
      "type": "function"
    },
    {
      "inputs": [
        {
          "internalType": "uint256",
          "name": "_taskId",
          "type": "uint256"
        }
      ],
      "name": "toggleCompleted",
      "outputs": [],
      "stateMutability": "nonpayable",
      "type": "function"
    }
  ],
  "bytecode": "0x60806040526000805534801561001457600080fd5b506107fb806100246000396000f3fe608060405234801561001057600080fd5b506004361061004c5760003560e01c8063455f502414610051578063672385621461006d5780638d97767214610089578063b6cb58a5146100bb575b600080fd5b61006b600480360381019061006691906104e7565b6100d9565b005b610087600480360381019061008291906104a6565b610229565b005b6100a3600480360381019061009e91906104e7565b6102c1565b6040516100b293929190610582565b60405180910390f35b6100c3610380565b6040516100d09190610567565b60405180910390f35b6000600160008381526020019081526020016000206040518060600160405290816000820154815260200160018201805461011390610695565b80601f016020809104026020016040519081016040528092919081815260200182805461013f90610695565b801561018c5780601f106101615761010080835404028352916020019161018c565b820191906000526020600020905b81548152906001019060200180831161016f57829003601f168201915b505050505081526020016002820160009054906101000a900460ff16151515158152505090508060400151158160400190151590811515815250508060016000848152602001908152602001600020600082015181600001556020820151816001019080519060200190610201929190610386565b5060408201518160020160006101000a81548160ff0219169083151502179055509050505050565b60008081548092919061023b906106c7565b91905055506040518060600160405280600054815260200182815260200160001515815250600160008054815260200190815260200160002060008201518160000155602082015181600101908051906020019061029a929190610386565b5060408201518160020160006101000a81548160ff02191690831515021790555090505050565b60016020528060005260406000206000915090508060000154908060010180546102ea90610695565b80601f016020809104026020016040519081016040528092919081815260200182805461031690610695565b80156103635780601f1061033857610100808354040283529160200191610363565b820191906000526020600020905b81548152906001019060200180831161034657829003601f168201915b5050505050908060020160009054906101000a900460ff16905083565b60005481565b82805461039290610695565b90600052602060002090601f0160209004810192826103b457600085556103fb565b82601f106103cd57805160ff19168380011785556103fb565b828001600101855582156103fb579182015b828111156103fa5782518255916020019190600101906103df565b5b509050610408919061040c565b5090565b5b8082111561042557600081600090555060010161040d565b5090565b600061043c610437846105f1565b6105c0565b90508281526020810184848401111561045457600080fd5b61045f848285610653565b509392505050565b600082601f83011261047857600080fd5b8135610488848260208601610429565b91505092915050565b6000813590506104a0816107ae565b92915050565b6000602082840312156104b857600080fd5b600082013567ffffffffffffffff8111156104d257600080fd5b6104de84828501610467565b91505092915050565b6000602082840312156104f957600080fd5b600061050784828501610491565b91505092915050565b6105198161063d565b82525050565b600061052a82610621565b610534818561062c565b9350610544818560208601610662565b61054d8161079d565b840191505092915050565b61056181610649565b82525050565b600060208201905061057c6000830184610558565b92915050565b60006060820190506105976000830186610558565b81810360208301526105a9818561051f565b90506105b86040830184610510565b949350505050565b6000604051905081810181811067ffffffffffffffff821117156105e7576105e661076e565b5b8060405250919050565b600067ffffffffffffffff82111561060c5761060b61076e565b5b601f19601f8301169050602081019050919050565b600081519050919050565b600082825260208201905092915050565b60008115159050919050565b6000819050919050565b82818337600083830152505050565b60005b83811015610680578082015181840152602081019050610665565b8381111561068f576000848401525b50505050565b600060028204905060018216806106ad57607f821691505b602082108114156106c1576106c061073f565b5b50919050565b60006106d282610649565b91507fffffffffffffffffffffffffffffffffffffffffffffffffffffffffffffffff82141561070557610704610710565b5b600182019050919050565b7f4e487b7100000000000000000000000000000000000000000000000000000000600052601160045260246000fd5b7f4e487b7100000000000000000000000000000000000000000000000000000000600052602260045260246000fd5b7f4e487b7100000000000000000000000000000000000000000000000000000000600052604160045260246000fd5b6000601f19601f8301169050919050565b6107b781610649565b81146107c257600080fd5b5056fea264697066735822122074c291d8d9cb66c3679da8d84342cb187456009553181f8aca12590d49c0addf64736f6c63430008000033",
  "linkReferences": {},
  "deployedLinkReferences": {}
}