{
  "_format": "hh-sol-artifact-1",
  "contractName": "TodoList",
  "sourceName": "contracts/to_do_list.sol",
  "abi": [
    {
      "inputs": [
        {
          "internalType": "string",
          "name": "_content",
          "type": "string"
        }
      ],
      "name": "addTask",
      "outputs": [],
      "stateMutability": "nonpayable",
      "type": "function"
    },
    {
      "inputs": [],
      "name": "taskCount",
      "outputs": [
        {
          "internalType": "uint256",
          "name": "",
          "type": "uint256"
        }
      ],
      "stateMutability": "view",
      "type": "function"
    },
    {
      "inputs": [
        {
          "internalType": "uint256",
          "name": "",
          "type": "uint256"
        }
      ],
      "name": "tasks",
      "outputs": [
        {
          "internalType": "uint256",
          "name": "id",
          "type": "uint256"
        },
        {
          "internalType": "string",
          "name": "content",
          "type": "string"
        },
        {
          "internalType": "bool",
          "name": "completed",
          "type": "bool"
        }
      ],
      "stateMutability": "view",
      "type": "function"
    },
    {
      "inputs": [
        {
          "internalType": "uint256",
          "name": "_taskId",
          "type": "uint256"
        }
      ],
      "name": "toggleCompleted",
      "outputs": [],
      "stateMutability": "nonpayable",
      "type": "function"
    }
  ],
  "bytecode": "0x608060405260008055348015601357600080fd5b50610a0b806100236000396000f3fe608060405234801561001057600080fd5b506004361061004c5760003560e01c8063455f502414610051578063672385621461006d5780638d97767214610089578063b6cb58a5146100bb575b600080fd5b61006b600480360381019061006691906103c2565b6100d9565b005b61008760048036038101906100829190610535565b610222565b005b6100a3600480360381019061009e91906103c2565b6102b3565b6040516100b293929190610627565b60405180910390f35b6100c3610372565b6040516100d09190610665565b60405180910390f35b60006001600083815260200190815260200160002060405180606001604052908160008201548152602001600182018054610113906106af565b80601f016020809104026020016040519081016040528092919081815260200182805461013f906106af565b801561018c5780601f106101615761010080835404028352916020019161018c565b820191906000526020600020905b81548152906001019060200180831161016f57829003601f168201915b505050505081526020016002820160009054906101000a900460ff161515151581525050905080604001511581604001901515908115158152505080600160008481526020019081526020016000206000820151816000015560208201518160010190816101fa919061088c565b5060408201518160020160006101000a81548160ff0219169083151502179055509050505050565b6000808154809291906102349061098d565b91905055506040518060600160405280600054815260200182815260200160001515815250600160008054815260200190815260200160002060008201518160000155602082015181600101908161028c919061088c565b5060408201518160020160006101000a81548160ff02191690831515021790555090505050565b60016020528060005260406000206000915090508060000154908060010180546102dc906106af565b80601f0160208091040260200160405190810160405280929190818152602001828054610308906106af565b80156103555780601f1061032a57610100808354040283529160200191610355565b820191906000526020600020905b81548152906001019060200180831161033857829003601f168201915b5050505050908060020160009054906101000a900460ff16905083565b60005481565b6000604051905090565b600080fd5b600080fd5b6000819050919050565b61039f8161038c565b81146103aa57600080fd5b50565b6000813590506103bc81610396565b92915050565b6000602082840312156103d8576103d7610382565b5b60006103e6848285016103ad565b91505092915050565b600080fd5b600080fd5b6000601f19601f8301169050919050565b7f4e487b7100000000000000000000000000000000000000000000000000000000600052604160045260246000fd5b610442826103f9565b810181811067ffffffffffffffff821117156104615761046061040a565b5b80604052505050565b6000610474610378565b90506104808282610439565b919050565b600067ffffffffffffffff8211156104a05761049f61040a565b5b6104a9826103f9565b9050602081019050919050565b82818337600083830152505050565b60006104d86104d384610485565b61046a565b9050828152602081018484840111156104f4576104f36103f4565b5b6104ff8482856104b6565b509392505050565b600082601f83011261051c5761051b6103ef565b5b813561052c8482602086016104c5565b91505092915050565b60006020828403121561054b5761054a610382565b5b600082013567ffffffffffffffff81111561056957610568610387565b5b61057584828501610507565b91505092915050565b6105878161038c565b82525050565b600081519050919050565b600082825260208201905092915050565b60005b838110156105c75780820151818401526020810190506105ac565b60008484015250505050565b60006105de8261058d565b6105e88185610598565b93506105f88185602086016105a9565b610601816103f9565b840191505092915050565b60008115159050919050565b6106218161060c565b82525050565b600060608201905061063c600083018661057e565b818103602083015261064e81856105d3565b905061065d6040830184610618565b949350505050565b600060208201905061067a600083018461057e565b92915050565b7f4e487b7100000000000000000000000000000000000000000000000000000000600052602260045260246000fd5b600060028204905060018216806106c757607f821691505b6020821081036106da576106d9610680565b5b50919050565b60008190508160005260206000209050919050565b60006020601f8301049050919050565b600082821b905092915050565b6000600883026107427fffffffffffffffffffffffffffffffffffffffffffffffffffffffffffffffff82610705565b61074c8683610705565b95508019841693508086168417925050509392505050565b6000819050919050565b600061078961078461077f8461038c565b610764565b61038c565b9050919050565b6000819050919050565b6107a38361076e565b6107b76107af82610790565b848454610712565b825550505050565b600090565b6107cc6107bf565b6107d781848461079a565b505050565b5b818110156107fb576107f06000826107c4565b6001810190506107dd565b5050565b601f82111561084057610811816106e0565b61081a846106f5565b81016020851015610829578190505b61083d610835856106f5565b8301826107dc565b50505b505050565b600082821c905092915050565b600061086360001984600802610845565b1980831691505092915050565b600061087c8383610852565b9150826002028217905092915050565b6108958261058d565b67ffffffffffffffff8111156108ae576108ad61040a565b5b6108b882546106af565b6108c38282856107ff565b600060209050601f8311600181146108f657600084156108e4578287015190505b6108ee8582610870565b865550610956565b601f198416610904866106e0565b60005b8281101561092c57848901518255600182019150602085019450602081019050610907565b868310156109495784890151610945601f891682610852565b8355505b6001600288020188555050505b505050505050565b7f4e487b7100000000000000000000000000000000000000000000000000000000600052601160045260246000fd5b60006109988261038c565b91507fffffffffffffffffffffffffffffffffffffffffffffffffffffffffffffffff82036109ca576109c961095e565b5b60018201905091905056fea264697066735822122040d7c37fc3a35208feaa546b01cbaece7058f54c06d0b3ccf3c4dd630fc9199b64736f6c634300081b0033",
  "linkReferences": {},
  "deployedLinkReferences": {}
}